{
  "_format": "hh-sol-artifact-1",
  "contractName": "Receiver",
  "sourceName": "contracts/Receiver.sol",
  "abi": [
    {
      "inputs": [
        {
          "internalType": "address",
          "name": "router",
          "type": "address"
        },
        {
          "internalType": "address",
          "name": "nftAddr",
          "type": "address"
        }
      ],
      "stateMutability": "nonpayable",
      "type": "constructor"
    },
    {
      "inputs": [
        {
          "internalType": "address",
          "name": "router",
          "type": "address"
        }
      ],
      "name": "InvalidRouter",
      "type": "error"
    },
    {
      "anonymous": false,
      "inputs": [
        {
          "indexed": true,
          "internalType": "bytes32",
          "name": "messageId",
          "type": "bytes32"
        },
        {
          "indexed": true,
          "internalType": "uint64",
          "name": "sourceChainSelector",
          "type": "uint64"
        },
        {
          "indexed": false,
          "internalType": "address",
          "name": "sender",
          "type": "address"
        },
        {
          "indexed": false,
          "internalType": "string",
          "name": "text",
          "type": "string"
        }
      ],
      "name": "MessageReceived",
      "type": "event"
    },
    {
      "inputs": [
        {
          "components": [
            {
              "internalType": "bytes32",
              "name": "messageId",
              "type": "bytes32"
            },
            {
              "internalType": "uint64",
              "name": "sourceChainSelector",
              "type": "uint64"
            },
            {
              "internalType": "bytes",
              "name": "sender",
              "type": "bytes"
            },
            {
              "internalType": "bytes",
              "name": "data",
              "type": "bytes"
            },
            {
              "components": [
                {
                  "internalType": "address",
                  "name": "token",
                  "type": "address"
                },
                {
                  "internalType": "uint256",
                  "name": "amount",
                  "type": "uint256"
                }
              ],
              "internalType": "struct Client.EVMTokenAmount[]",
              "name": "destTokenAmounts",
              "type": "tuple[]"
            }
          ],
          "internalType": "struct Client.Any2EVMMessage",
          "name": "message",
          "type": "tuple"
        }
      ],
      "name": "ccipReceive",
      "outputs": [],
      "stateMutability": "nonpayable",
      "type": "function"
    },
    {
      "inputs": [],
      "name": "getLastReceivedMessageDetails",
      "outputs": [
        {
          "internalType": "bytes32",
          "name": "messageId",
          "type": "bytes32"
        },
        {
          "internalType": "string",
          "name": "text",
          "type": "string"
        }
      ],
      "stateMutability": "view",
      "type": "function"
    },
    {
      "inputs": [],
      "name": "getRouter",
      "outputs": [
        {
          "internalType": "address",
          "name": "",
          "type": "address"
        }
      ],
      "stateMutability": "view",
      "type": "function"
    },
    {
      "inputs": [
        {
          "internalType": "bytes4",
          "name": "interfaceId",
          "type": "bytes4"
        }
      ],
      "name": "supportsInterface",
      "outputs": [
        {
          "internalType": "bool",
          "name": "",
          "type": "bool"
        }
      ],
      "stateMutability": "pure",
      "type": "function"
    }
  ],
  "bytecode": "0x60a06040523480156200001157600080fd5b5060405162000d5f38038062000d5f833981810160405281019062000037919062000194565b81600073ffffffffffffffffffffffffffffffffffffffff168173ffffffffffffffffffffffffffffffffffffffff1603620000ad5760006040517fd7f73334000000000000000000000000000000000000000000000000000000008152600401620000a49190620001ec565b60405180910390fd5b8073ffffffffffffffffffffffffffffffffffffffff1660808173ffffffffffffffffffffffffffffffffffffffff168152505050806000806101000a81548173ffffffffffffffffffffffffffffffffffffffff021916908373ffffffffffffffffffffffffffffffffffffffff160217905550505062000209565b600080fd5b600073ffffffffffffffffffffffffffffffffffffffff82169050919050565b60006200015c826200012f565b9050919050565b6200016e816200014f565b81146200017a57600080fd5b50565b6000815190506200018e8162000163565b92915050565b60008060408385031215620001ae57620001ad6200012a565b5b6000620001be858286016200017d565b9250506020620001d1858286016200017d565b9150509250929050565b620001e6816200014f565b82525050565b6000602082019050620002036000830184620001db565b92915050565b608051610b336200022c6000396000818161024b01526102f20152610b336000f3fe608060405234801561001057600080fd5b506004361061004c5760003560e01c806301ffc9a714610051578063263596a51461008157806385572ffb146100a0578063b0f479a1146100bc575b600080fd5b61006b60048036038101906100669190610422565b6100da565b604051610078919061046a565b60405180910390f35b6100896101ac565b60405161009792919061052e565b60405180910390f35b6100ba60048036038101906100b59190610582565b610249565b005b6100c46102ee565b6040516100d1919061060c565b60405180910390f35b60007f85572ffb000000000000000000000000000000000000000000000000000000007bffffffffffffffffffffffffffffffffffffffffffffffffffffffff1916827bffffffffffffffffffffffffffffffffffffffffffffffffffffffff191614806101a557507f01ffc9a7000000000000000000000000000000000000000000000000000000007bffffffffffffffffffffffffffffffffffffffffffffffffffffffff1916827bffffffffffffffffffffffffffffffffffffffffffffffffffffffff1916145b9050919050565b6000606060015460028080546101c190610656565b80601f01602080910402602001604051908101604052809291908181526020018280546101ed90610656565b801561023a5780601f1061020f5761010080835404028352916020019161023a565b820191906000526020600020905b81548152906001019060200180831161021d57829003601f168201915b50505050509050915091509091565b7f000000000000000000000000000000000000000000000000000000000000000073ffffffffffffffffffffffffffffffffffffffff163373ffffffffffffffffffffffffffffffffffffffff16146102d957336040517fd7f733340000000000000000000000000000000000000000000000000000000081526004016102d0919061060c565b60405180910390fd5b6102eb816102e690610a8c565b610316565b50565b60007f0000000000000000000000000000000000000000000000000000000000000000905090565b60008060009054906101000a900473ffffffffffffffffffffffffffffffffffffffff1673ffffffffffffffffffffffffffffffffffffffff1682606001516040516103629190610ae6565b6000604051808303816000865af19150503d806000811461039f576040519150601f19603f3d011682016040523d82523d6000602084013e6103a4565b606091505b50509050806103b257600080fd5b5050565b6000604051905090565b600080fd5b600080fd5b60007fffffffff0000000000000000000000000000000000000000000000000000000082169050919050565b6103ff816103ca565b811461040a57600080fd5b50565b60008135905061041c816103f6565b92915050565b600060208284031215610438576104376103c0565b5b60006104468482850161040d565b91505092915050565b60008115159050919050565b6104648161044f565b82525050565b600060208201905061047f600083018461045b565b92915050565b6000819050919050565b61049881610485565b82525050565b600081519050919050565b600082825260208201905092915050565b60005b838110156104d85780820151818401526020810190506104bd565b60008484015250505050565b6000601f19601f8301169050919050565b60006105008261049e565b61050a81856104a9565b935061051a8185602086016104ba565b610523816104e4565b840191505092915050565b6000604082019050610543600083018561048f565b818103602083015261055581846104f5565b90509392505050565b600080fd5b600060a082840312156105795761057861055e565b5b81905092915050565b600060208284031215610598576105976103c0565b5b600082013567ffffffffffffffff8111156105b6576105b56103c5565b5b6105c284828501610563565b91505092915050565b600073ffffffffffffffffffffffffffffffffffffffff82169050919050565b60006105f6826105cb565b9050919050565b610606816105eb565b82525050565b600060208201905061062160008301846105fd565b92915050565b7f4e487b7100000000000000000000000000000000000000000000000000000000600052602260045260246000fd5b6000600282049050600182168061066e57607f821691505b60208210810361068157610680610627565b5b50919050565b600080fd5b7f4e487b7100000000000000000000000000000000000000000000000000000000600052604160045260246000fd5b6106c4826104e4565b810181811067ffffffffffffffff821117156106e3576106e261068c565b5b80604052505050565b60006106f66103b6565b905061070282826106bb565b919050565b600080fd5b61071581610485565b811461072057600080fd5b50565b6000813590506107328161070c565b92915050565b600067ffffffffffffffff82169050919050565b61075581610738565b811461076057600080fd5b50565b6000813590506107728161074c565b92915050565b600080fd5b600080fd5b600067ffffffffffffffff82111561079d5761079c61068c565b5b6107a6826104e4565b9050602081019050919050565b82818337600083830152505050565b60006107d56107d084610782565b6106ec565b9050828152602081018484840111156107f1576107f061077d565b5b6107fc8482856107b3565b509392505050565b600082601f83011261081957610818610778565b5b81356108298482602086016107c2565b91505092915050565b600067ffffffffffffffff82111561084d5761084c61068c565b5b602082029050602081019050919050565b600080fd5b61086c816105eb565b811461087757600080fd5b50565b60008135905061088981610863565b92915050565b6000819050919050565b6108a28161088f565b81146108ad57600080fd5b50565b6000813590506108bf81610899565b92915050565b6000604082840312156108db576108da610687565b5b6108e560406106ec565b905060006108f58482850161087a565b6000830152506020610909848285016108b0565b60208301525092915050565b600061092861092384610832565b6106ec565b9050808382526020820190506040840283018581111561094b5761094a61085e565b5b835b81811015610974578061096088826108c5565b84526020840193505060408101905061094d565b5050509392505050565b600082601f83011261099357610992610778565b5b81356109a3848260208601610915565b91505092915050565b600060a082840312156109c2576109c1610687565b5b6109cc60a06106ec565b905060006109dc84828501610723565b60008301525060206109f084828501610763565b602083015250604082013567ffffffffffffffff811115610a1457610a13610707565b5b610a2084828501610804565b604083015250606082013567ffffffffffffffff811115610a4457610a43610707565b5b610a5084828501610804565b606083015250608082013567ffffffffffffffff811115610a7457610a73610707565b5b610a808482850161097e565b60808301525092915050565b6000610a9836836109ac565b9050919050565b600081519050919050565b600081905092915050565b6000610ac082610a9f565b610aca8185610aaa565b9350610ada8185602086016104ba565b80840191505092915050565b6000610af28284610ab5565b91508190509291505056fea26469706673582212200d67507d763f85470fe121c4bfece1996c394c8f5fd9ffa9bd68bddb40da504464736f6c63430008130033",
  "linkReferences": {},
  "deployedLinkReferences": {}
}