{
  "_format": "hh-sol-artifact-1",
  "contractName": "Sender",
  "sourceName": "contracts/Sender.sol",
  "abi": [
    {
      "inputs": [
        {
          "internalType": "address",
          "name": "_router",
          "type": "address"
        },
        {
          "internalType": "address",
          "name": "_link",
          "type": "address"
        }
      ],
      "stateMutability": "nonpayable",
      "type": "constructor"
    },
    {
      "inputs": [
        {
          "internalType": "uint256",
          "name": "currentBalance",
          "type": "uint256"
        },
        {
          "internalType": "uint256",
          "name": "calculatedFees",
          "type": "uint256"
        }
      ],
      "name": "NotEnoughBalance",
      "type": "error"
    },
    {
      "anonymous": false,
      "inputs": [
        {
          "indexed": true,
          "internalType": "bytes32",
          "name": "messageId",
          "type": "bytes32"
        },
        {
          "indexed": true,
          "internalType": "uint64",
          "name": "destinationChainSelector",
          "type": "uint64"
        },
        {
          "indexed": false,
          "internalType": "address",
          "name": "receiver",
          "type": "address"
        },
        {
          "indexed": false,
          "internalType": "address",
          "name": "feeToken",
          "type": "address"
        },
        {
          "indexed": false,
          "internalType": "uint256",
          "name": "fees",
          "type": "uint256"
        }
      ],
      "name": "MessageSent",
      "type": "event"
    },
    {
      "anonymous": false,
      "inputs": [
        {
          "indexed": true,
          "internalType": "address",
          "name": "from",
          "type": "address"
        },
        {
          "indexed": true,
          "internalType": "address",
          "name": "to",
          "type": "address"
        }
      ],
      "name": "OwnershipTransferRequested",
      "type": "event"
    },
    {
      "anonymous": false,
      "inputs": [
        {
          "indexed": true,
          "internalType": "address",
          "name": "from",
          "type": "address"
        },
        {
          "indexed": true,
          "internalType": "address",
          "name": "to",
          "type": "address"
        }
      ],
      "name": "OwnershipTransferred",
      "type": "event"
    },
    {
      "inputs": [],
      "name": "acceptOwnership",
      "outputs": [],
      "stateMutability": "nonpayable",
      "type": "function"
    },
    {
      "inputs": [],
      "name": "owner",
      "outputs": [
        {
          "internalType": "address",
          "name": "",
          "type": "address"
        }
      ],
      "stateMutability": "view",
      "type": "function"
    },
    {
      "inputs": [
        {
          "internalType": "uint64",
          "name": "destinationChainSelector",
          "type": "uint64"
        },
        {
          "internalType": "address",
          "name": "receiver",
          "type": "address"
        }
      ],
      "name": "sendMessage",
      "outputs": [
        {
          "internalType": "bytes32",
          "name": "messageId",
          "type": "bytes32"
        }
      ],
      "stateMutability": "nonpayable",
      "type": "function"
    },
    {
      "inputs": [
        {
          "internalType": "address",
          "name": "to",
          "type": "address"
        }
      ],
      "name": "transferOwnership",
      "outputs": [],
      "stateMutability": "nonpayable",
      "type": "function"
    }
  ],
  "bytecode": "0x60806040523480156200001157600080fd5b50604051620016c1380380620016c1833981810160405281019062000037919062000359565b338060008073ffffffffffffffffffffffffffffffffffffffff168273ffffffffffffffffffffffffffffffffffffffff1603620000ac576040517f08c379a0000000000000000000000000000000000000000000000000000000008152600401620000a39062000401565b60405180910390fd5b816000806101000a81548173ffffffffffffffffffffffffffffffffffffffff021916908373ffffffffffffffffffffffffffffffffffffffff160217905550600073ffffffffffffffffffffffffffffffffffffffff168173ffffffffffffffffffffffffffffffffffffffff161462000133576200013281620001c060201b60201c565b5b50505081600260006101000a81548173ffffffffffffffffffffffffffffffffffffffff021916908373ffffffffffffffffffffffffffffffffffffffff16021790555080600360006101000a81548173ffffffffffffffffffffffffffffffffffffffff021916908373ffffffffffffffffffffffffffffffffffffffff160217905550505062000495565b3373ffffffffffffffffffffffffffffffffffffffff168173ffffffffffffffffffffffffffffffffffffffff160362000231576040517f08c379a0000000000000000000000000000000000000000000000000000000008152600401620002289062000473565b60405180910390fd5b80600160006101000a81548173ffffffffffffffffffffffffffffffffffffffff021916908373ffffffffffffffffffffffffffffffffffffffff1602179055508073ffffffffffffffffffffffffffffffffffffffff1660008054906101000a900473ffffffffffffffffffffffffffffffffffffffff1673ffffffffffffffffffffffffffffffffffffffff167fed8889f560326eb138920d842192f0eb3dd22b4f139c87a2c57538e05bae127860405160405180910390a350565b600080fd5b600073ffffffffffffffffffffffffffffffffffffffff82169050919050565b60006200032182620002f4565b9050919050565b620003338162000314565b81146200033f57600080fd5b50565b600081519050620003538162000328565b92915050565b60008060408385031215620003735762000372620002ef565b5b6000620003838582860162000342565b9250506020620003968582860162000342565b9150509250929050565b600082825260208201905092915050565b7f43616e6e6f7420736574206f776e657220746f207a65726f0000000000000000600082015250565b6000620003e9601883620003a0565b9150620003f682620003b1565b602082019050919050565b600060208201905081810360008301526200041c81620003da565b9050919050565b7f43616e6e6f74207472616e7366657220746f2073656c66000000000000000000600082015250565b60006200045b601783620003a0565b9150620004688262000423565b602082019050919050565b600060208201905081810360008301526200048e816200044c565b9050919050565b61121c80620004a56000396000f3fe608060405234801561001057600080fd5b506004361061004c5760003560e01c806379ba5097146100515780638da5cb5b1461005b578063a723269d14610079578063f2fde38b146100a9575b600080fd5b6100596100c5565b005b61006361025a565b6040516100709190610acd565b60405180910390f35b610093600480360381019061008e9190610b59565b610283565b6040516100a09190610bb2565b60405180910390f35b6100c360048036038101906100be9190610bcd565b61080d565b005b600160009054906101000a900473ffffffffffffffffffffffffffffffffffffffff1673ffffffffffffffffffffffffffffffffffffffff163373ffffffffffffffffffffffffffffffffffffffff1614610155576040517f08c379a000000000000000000000000000000000000000000000000000000000815260040161014c90610c57565b60405180910390fd5b60008060009054906101000a900473ffffffffffffffffffffffffffffffffffffffff169050336000806101000a81548173ffffffffffffffffffffffffffffffffffffffff021916908373ffffffffffffffffffffffffffffffffffffffff1602179055506000600160006101000a81548173ffffffffffffffffffffffffffffffffffffffff021916908373ffffffffffffffffffffffffffffffffffffffff1602179055503373ffffffffffffffffffffffffffffffffffffffff168173ffffffffffffffffffffffffffffffffffffffff167f8be0079c531659141344cd1fd0a4f28419497f9722a3daafe3b4186f6b6457e060405160405180910390a350565b60008060009054906101000a900473ffffffffffffffffffffffffffffffffffffffff16905090565b600061028d610821565b6000336040516024016102a09190610acd565b6040516020818303038152906040527f40d097c3000000000000000000000000000000000000000000000000000000007bffffffffffffffffffffffffffffffffffffffffffffffffffffffff19166020820180517bffffffffffffffffffffffffffffffffffffffffffffffffffffffff8381831617835250505050905060006040518060a001604052808560405160200161033d9190610acd565b6040516020818303038152906040528152602001838152602001600067ffffffffffffffff81111561037257610371610c77565b5b6040519080825280602002602001820160405280156103ab57816020015b610398610a5c565b8152602001906001900390816103905790505b508152602001600360009054906101000a900473ffffffffffffffffffffffffffffffffffffffff1673ffffffffffffffffffffffffffffffffffffffff168152602001610412604051806040016040528062030d408152602001600015158152506108b1565b81525090506000600260009054906101000a900473ffffffffffffffffffffffffffffffffffffffff1673ffffffffffffffffffffffffffffffffffffffff166320487ded87846040518363ffffffff1660e01b8152600401610476929190610ed6565b602060405180830381865afa158015610493573d6000803e3d6000fd5b505050506040513d601f19601f820116820180604052508101906104b79190610f32565b9050600360009054906101000a900473ffffffffffffffffffffffffffffffffffffffff1673ffffffffffffffffffffffffffffffffffffffff166370a08231306040518263ffffffff1660e01b81526004016105149190610acd565b602060405180830381865afa158015610531573d6000803e3d6000fd5b505050506040513d601f19601f820116820180604052508101906105559190610f32565b81111561063657600360009054906101000a900473ffffffffffffffffffffffffffffffffffffffff1673ffffffffffffffffffffffffffffffffffffffff166370a08231306040518263ffffffff1660e01b81526004016105b79190610acd565b602060405180830381865afa1580156105d4573d6000803e3d6000fd5b505050506040513d601f19601f820116820180604052508101906105f89190610f32565b816040517f8f0f420600000000000000000000000000000000000000000000000000000000815260040161062d929190610f6e565b60405180910390fd5b600360009054906101000a900473ffffffffffffffffffffffffffffffffffffffff1673ffffffffffffffffffffffffffffffffffffffff1663095ea7b3600260009054906101000a900473ffffffffffffffffffffffffffffffffffffffff16836040518363ffffffff1660e01b81526004016106b5929190610f97565b6020604051808303816000875af11580156106d4573d6000803e3d6000fd5b505050506040513d601f19601f820116820180604052508101906106f89190610ff8565b50600260009054906101000a900473ffffffffffffffffffffffffffffffffffffffff1673ffffffffffffffffffffffffffffffffffffffff166396f4e9f987846040518363ffffffff1660e01b8152600401610756929190610ed6565b6020604051808303816000875af1158015610775573d6000803e3d6000fd5b505050506040513d601f19601f820116820180604052508101906107999190611051565b93508567ffffffffffffffff16847f9fb548811cfe022ba6400d8533a80d63fbc228e596f93603959dc47b1886af5487600360009054906101000a900473ffffffffffffffffffffffffffffffffffffffff16856040516107fc9392919061107e565b60405180910390a350505092915050565b610815610821565b61081e81610930565b50565b60008054906101000a900473ffffffffffffffffffffffffffffffffffffffff1673ffffffffffffffffffffffffffffffffffffffff163373ffffffffffffffffffffffffffffffffffffffff16146108af576040517f08c379a00000000000000000000000000000000000000000000000000000000081526004016108a690611101565b60405180910390fd5b565b60606397a657c960e01b826040516024016108cc919061115f565b604051602081830303815290604052907bffffffffffffffffffffffffffffffffffffffffffffffffffffffff19166020820180517bffffffffffffffffffffffffffffffffffffffffffffffffffffffff83818316178352505050509050919050565b3373ffffffffffffffffffffffffffffffffffffffff168173ffffffffffffffffffffffffffffffffffffffff160361099e576040517f08c379a0000000000000000000000000000000000000000000000000000000008152600401610995906111c6565b60405180910390fd5b80600160006101000a81548173ffffffffffffffffffffffffffffffffffffffff021916908373ffffffffffffffffffffffffffffffffffffffff1602179055508073ffffffffffffffffffffffffffffffffffffffff1660008054906101000a900473ffffffffffffffffffffffffffffffffffffffff1673ffffffffffffffffffffffffffffffffffffffff167fed8889f560326eb138920d842192f0eb3dd22b4f139c87a2c57538e05bae127860405160405180910390a350565b6040518060400160405280600073ffffffffffffffffffffffffffffffffffffffff168152602001600081525090565b600073ffffffffffffffffffffffffffffffffffffffff82169050919050565b6000610ab782610a8c565b9050919050565b610ac781610aac565b82525050565b6000602082019050610ae26000830184610abe565b92915050565b600080fd5b600067ffffffffffffffff82169050919050565b610b0a81610aed565b8114610b1557600080fd5b50565b600081359050610b2781610b01565b92915050565b610b3681610aac565b8114610b4157600080fd5b50565b600081359050610b5381610b2d565b92915050565b60008060408385031215610b7057610b6f610ae8565b5b6000610b7e85828601610b18565b9250506020610b8f85828601610b44565b9150509250929050565b6000819050919050565b610bac81610b99565b82525050565b6000602082019050610bc76000830184610ba3565b92915050565b600060208284031215610be357610be2610ae8565b5b6000610bf184828501610b44565b91505092915050565b600082825260208201905092915050565b7f4d7573742062652070726f706f736564206f776e657200000000000000000000600082015250565b6000610c41601683610bfa565b9150610c4c82610c0b565b602082019050919050565b60006020820190508181036000830152610c7081610c34565b9050919050565b7f4e487b7100000000000000000000000000000000000000000000000000000000600052604160045260246000fd5b610caf81610aed565b82525050565b600081519050919050565b600082825260208201905092915050565b60005b83811015610cef578082015181840152602081019050610cd4565b60008484015250505050565b6000601f19601f8301169050919050565b6000610d1782610cb5565b610d218185610cc0565b9350610d31818560208601610cd1565b610d3a81610cfb565b840191505092915050565b600081519050919050565b600082825260208201905092915050565b6000819050602082019050919050565b610d7a81610aac565b82525050565b6000819050919050565b610d9381610d80565b82525050565b604082016000820151610daf6000850182610d71565b506020820151610dc26020850182610d8a565b50505050565b6000610dd48383610d99565b60408301905092915050565b6000602082019050919050565b6000610df882610d45565b610e028185610d50565b9350610e0d83610d61565b8060005b83811015610e3e578151610e258882610dc8565b9750610e3083610de0565b925050600181019050610e11565b5085935050505092915050565b600060a0830160008301518482036000860152610e688282610d0c565b91505060208301518482036020860152610e828282610d0c565b91505060408301518482036040860152610e9c8282610ded565b9150506060830151610eb16060860182610d71565b5060808301518482036080860152610ec98282610d0c565b9150508091505092915050565b6000604082019050610eeb6000830185610ca6565b8181036020830152610efd8184610e4b565b90509392505050565b610f0f81610d80565b8114610f1a57600080fd5b50565b600081519050610f2c81610f06565b92915050565b600060208284031215610f4857610f47610ae8565b5b6000610f5684828501610f1d565b91505092915050565b610f6881610d80565b82525050565b6000604082019050610f836000830185610f5f565b610f906020830184610f5f565b9392505050565b6000604082019050610fac6000830185610abe565b610fb96020830184610f5f565b9392505050565b60008115159050919050565b610fd581610fc0565b8114610fe057600080fd5b50565b600081519050610ff281610fcc565b92915050565b60006020828403121561100e5761100d610ae8565b5b600061101c84828501610fe3565b91505092915050565b61102e81610b99565b811461103957600080fd5b50565b60008151905061104b81611025565b92915050565b60006020828403121561106757611066610ae8565b5b60006110758482850161103c565b91505092915050565b60006060820190506110936000830186610abe565b6110a06020830185610abe565b6110ad6040830184610f5f565b949350505050565b7f4f6e6c792063616c6c61626c65206279206f776e657200000000000000000000600082015250565b60006110eb601683610bfa565b91506110f6826110b5565b602082019050919050565b6000602082019050818103600083015261111a816110de565b9050919050565b61112a81610fc0565b82525050565b6040820160008201516111466000850182610d8a565b5060208201516111596020850182611121565b50505050565b60006040820190506111746000830184611130565b92915050565b7f43616e6e6f74207472616e7366657220746f2073656c66000000000000000000600082015250565b60006111b0601783610bfa565b91506111bb8261117a565b602082019050919050565b600060208201905081810360008301526111df816111a3565b905091905056fea26469706673582212200908c056da9b0f7ab3703c4f5aaa9c8ac74b29bd1f495437df1aa8c42ac9e38064736f6c63430008130033",
  "linkReferences": {},
  "deployedLinkReferences": {}
}