{
  "_format": "hh-sol-artifact-1",
  "contractName": "CarbonLink",
  "sourceName": "contracts/CarbonLink.sol",
  "abi": [
    {
      "inputs": [
        {
          "internalType": "address",
          "name": "oracle",
          "type": "address"
        }
      ],
      "stateMutability": "nonpayable",
      "type": "constructor"
    },
    {
      "inputs": [],
      "name": "EmptySecrets",
      "type": "error"
    },
    {
      "inputs": [],
      "name": "EmptySource",
      "type": "error"
    },
    {
      "inputs": [],
      "name": "NoInlineSecrets",
      "type": "error"
    },
    {
      "inputs": [],
      "name": "OnlyRouterCanFulfill",
      "type": "error"
    },
    {
      "inputs": [
        {
          "internalType": "bytes32",
          "name": "requestId",
          "type": "bytes32"
        },
        {
          "internalType": "bytes",
          "name": "response",
          "type": "bytes"
        },
        {
          "internalType": "bytes",
          "name": "err",
          "type": "bytes"
        }
      ],
      "name": "UnknownRequestId",
      "type": "error"
    },
    {
      "anonymous": false,
      "inputs": [
        {
          "indexed": true,
          "internalType": "address",
          "name": "owner",
          "type": "address"
        },
        {
          "indexed": true,
          "internalType": "address",
          "name": "approved",
          "type": "address"
        },
        {
          "indexed": true,
          "internalType": "uint256",
          "name": "tokenId",
          "type": "uint256"
        }
      ],
      "name": "Approval",
      "type": "event"
    },
    {
      "anonymous": false,
      "inputs": [
        {
          "indexed": true,
          "internalType": "address",
          "name": "owner",
          "type": "address"
        },
        {
          "indexed": true,
          "internalType": "address",
          "name": "operator",
          "type": "address"
        },
        {
          "indexed": false,
          "internalType": "bool",
          "name": "approved",
          "type": "bool"
        }
      ],
      "name": "ApprovalForAll",
      "type": "event"
    },
    {
      "anonymous": false,
      "inputs": [
        {
          "indexed": true,
          "internalType": "bytes32",
          "name": "requestId",
          "type": "bytes32"
        },
        {
          "indexed": false,
          "internalType": "bytes",
          "name": "result",
          "type": "bytes"
        },
        {
          "indexed": false,
          "internalType": "bytes",
          "name": "err",
          "type": "bytes"
        }
      ],
      "name": "OCRResponse",
      "type": "event"
    },
    {
      "anonymous": false,
      "inputs": [
        {
          "indexed": true,
          "internalType": "address",
          "name": "previousOwner",
          "type": "address"
        },
        {
          "indexed": true,
          "internalType": "address",
          "name": "newOwner",
          "type": "address"
        }
      ],
      "name": "OwnershipTransferred",
      "type": "event"
    },
    {
      "anonymous": false,
      "inputs": [
        {
          "indexed": true,
          "internalType": "bytes32",
          "name": "id",
          "type": "bytes32"
        }
      ],
      "name": "RequestFulfilled",
      "type": "event"
    },
    {
      "anonymous": false,
      "inputs": [
        {
          "indexed": true,
          "internalType": "bytes32",
          "name": "id",
          "type": "bytes32"
        }
      ],
      "name": "RequestSent",
      "type": "event"
    },
    {
      "anonymous": false,
      "inputs": [
        {
          "indexed": true,
          "internalType": "address",
          "name": "from",
          "type": "address"
        },
        {
          "indexed": true,
          "internalType": "address",
          "name": "to",
          "type": "address"
        },
        {
          "indexed": true,
          "internalType": "uint256",
          "name": "tokenId",
          "type": "uint256"
        }
      ],
      "name": "Transfer",
      "type": "event"
    },
    {
      "inputs": [
        {
          "internalType": "address",
          "name": "to",
          "type": "address"
        },
        {
          "internalType": "uint256",
          "name": "tokenId",
          "type": "uint256"
        }
      ],
      "name": "approve",
      "outputs": [],
      "stateMutability": "nonpayable",
      "type": "function"
    },
    {
      "inputs": [
        {
          "internalType": "address",
          "name": "owner",
          "type": "address"
        }
      ],
      "name": "balanceOf",
      "outputs": [
        {
          "internalType": "uint256",
          "name": "",
          "type": "uint256"
        }
      ],
      "stateMutability": "view",
      "type": "function"
    },
    {
      "inputs": [
        {
          "internalType": "uint256",
          "name": "tokenId",
          "type": "uint256"
        }
      ],
      "name": "buyCarbonLink",
      "outputs": [],
      "stateMutability": "payable",
      "type": "function"
    },
    {
      "inputs": [
        {
          "internalType": "uint256",
          "name": "tokenId",
          "type": "uint256"
        }
      ],
      "name": "getApproved",
      "outputs": [
        {
          "internalType": "address",
          "name": "",
          "type": "address"
        }
      ],
      "stateMutability": "view",
      "type": "function"
    },
    {
      "inputs": [
        {
          "internalType": "uint256",
          "name": "tokenId",
          "type": "uint256"
        }
      ],
      "name": "getCarbonLink",
      "outputs": [
        {
          "components": [
            {
              "internalType": "string",
              "name": "uuid",
              "type": "string"
            },
            {
              "internalType": "uint256",
              "name": "metricTonsCO2",
              "type": "uint256"
            },
            {
              "internalType": "uint256",
              "name": "price",
              "type": "uint256"
            },
            {
              "internalType": "bool",
              "name": "retired",
              "type": "bool"
            },
            {
              "internalType": "bool",
              "name": "exists",
              "type": "bool"
            },
            {
              "internalType": "uint256",
              "name": "riskRating",
              "type": "uint256"
            },
            {
              "internalType": "uint256",
              "name": "lastEvaluatedRiskDate",
              "type": "uint256"
            },
            {
              "internalType": "bytes32",
              "name": "latestRequestId",
              "type": "bytes32"
            }
          ],
          "internalType": "struct CarbonLink.Credit",
          "name": "",
          "type": "tuple"
        }
      ],
      "stateMutability": "view",
      "type": "function"
    },
    {
      "inputs": [
        {
          "internalType": "bytes32",
          "name": "requestId",
          "type": "bytes32"
        },
        {
          "internalType": "bytes",
          "name": "response",
          "type": "bytes"
        },
        {
          "internalType": "bytes",
          "name": "err",
          "type": "bytes"
        }
      ],
      "name": "handleOracleFulfillment",
      "outputs": [],
      "stateMutability": "nonpayable",
      "type": "function"
    },
    {
      "inputs": [
        {
          "internalType": "address",
          "name": "owner",
          "type": "address"
        },
        {
          "internalType": "address",
          "name": "operator",
          "type": "address"
        }
      ],
      "name": "isApprovedForAll",
      "outputs": [
        {
          "internalType": "bool",
          "name": "",
          "type": "bool"
        }
      ],
      "stateMutability": "view",
      "type": "function"
    },
    {
      "inputs": [],
      "name": "issuedCredits",
      "outputs": [
        {
          "internalType": "uint256",
          "name": "",
          "type": "uint256"
        }
      ],
      "stateMutability": "view",
      "type": "function"
    },
    {
      "inputs": [
        {
          "internalType": "string",
          "name": "uuid",
          "type": "string"
        },
        {
          "internalType": "uint256",
          "name": "metricTonsCO2",
          "type": "uint256"
        },
        {
          "internalType": "uint256",
          "name": "price",
          "type": "uint256"
        },
        {
          "internalType": "bool",
          "name": "retired",
          "type": "bool"
        },
        {
          "internalType": "uint256",
          "name": "riskRating",
          "type": "uint256"
        },
        {
          "internalType": "uint256",
          "name": "lastEvaluatedRiskDate",
          "type": "uint256"
        },
        {
          "internalType": "bytes32",
          "name": "latestRequestId",
          "type": "bytes32"
        }
      ],
      "name": "mintCarbonLink",
      "outputs": [],
      "stateMutability": "nonpayable",
      "type": "function"
    },
    {
      "inputs": [],
      "name": "name",
      "outputs": [
        {
          "internalType": "string",
          "name": "",
          "type": "string"
        }
      ],
      "stateMutability": "view",
      "type": "function"
    },
    {
      "inputs": [],
      "name": "owner",
      "outputs": [
        {
          "internalType": "address",
          "name": "",
          "type": "address"
        }
      ],
      "stateMutability": "view",
      "type": "function"
    },
    {
      "inputs": [
        {
          "internalType": "uint256",
          "name": "tokenId",
          "type": "uint256"
        }
      ],
      "name": "ownerOf",
      "outputs": [
        {
          "internalType": "address",
          "name": "",
          "type": "address"
        }
      ],
      "stateMutability": "view",
      "type": "function"
    },
    {
      "inputs": [],
      "name": "renounceOwnership",
      "outputs": [],
      "stateMutability": "nonpayable",
      "type": "function"
    },
    {
      "inputs": [
        {
          "internalType": "bytes32",
          "name": "",
          "type": "bytes32"
        }
      ],
      "name": "requestIdToTokenId",
      "outputs": [
        {
          "internalType": "uint256",
          "name": "",
          "type": "uint256"
        }
      ],
      "stateMutability": "view",
      "type": "function"
    },
    {
      "inputs": [
        {
          "internalType": "string",
          "name": "source",
          "type": "string"
        },
        {
          "internalType": "bytes",
          "name": "secrets",
          "type": "bytes"
        },
        {
          "internalType": "uint256",
          "name": "tokenId",
          "type": "uint256"
        }
      ],
      "name": "requestRiskData",
      "outputs": [
        {
          "internalType": "bytes32",
          "name": "",
          "type": "bytes32"
        }
      ],
      "stateMutability": "nonpayable",
      "type": "function"
    },
    {
      "inputs": [
        {
          "internalType": "uint256",
          "name": "tokenId",
          "type": "uint256"
        }
      ],
      "name": "retireCarbonLink",
      "outputs": [],
      "stateMutability": "nonpayable",
      "type": "function"
    },
    {
      "inputs": [
        {
          "internalType": "address",
          "name": "from",
          "type": "address"
        },
        {
          "internalType": "address",
          "name": "to",
          "type": "address"
        },
        {
          "internalType": "uint256",
          "name": "tokenId",
          "type": "uint256"
        }
      ],
      "name": "safeTransferFrom",
      "outputs": [],
      "stateMutability": "nonpayable",
      "type": "function"
    },
    {
      "inputs": [
        {
          "internalType": "address",
          "name": "from",
          "type": "address"
        },
        {
          "internalType": "address",
          "name": "to",
          "type": "address"
        },
        {
          "internalType": "uint256",
          "name": "tokenId",
          "type": "uint256"
        },
        {
          "internalType": "bytes",
          "name": "data",
          "type": "bytes"
        }
      ],
      "name": "safeTransferFrom",
      "outputs": [],
      "stateMutability": "nonpayable",
      "type": "function"
    },
    {
      "inputs": [
        {
          "internalType": "address",
          "name": "operator",
          "type": "address"
        },
        {
          "internalType": "bool",
          "name": "approved",
          "type": "bool"
        }
      ],
      "name": "setApprovalForAll",
      "outputs": [],
      "stateMutability": "nonpayable",
      "type": "function"
    },
    {
      "inputs": [
        {
          "internalType": "uint32",
          "name": "_gasLimit",
          "type": "uint32"
        }
      ],
      "name": "setGasLimit",
      "outputs": [],
      "stateMutability": "nonpayable",
      "type": "function"
    },
    {
      "inputs": [
        {
          "internalType": "bytes32",
          "name": "_jobId",
          "type": "bytes32"
        }
      ],
      "name": "setJobId",
      "outputs": [],
      "stateMutability": "nonpayable",
      "type": "function"
    },
    {
      "inputs": [
        {
          "internalType": "uint64",
          "name": "_subscriptionId",
          "type": "uint64"
        }
      ],
      "name": "setSubscriptionId",
      "outputs": [],
      "stateMutability": "nonpayable",
      "type": "function"
    },
    {
      "inputs": [
        {
          "internalType": "bytes4",
          "name": "interfaceId",
          "type": "bytes4"
        }
      ],
      "name": "supportsInterface",
      "outputs": [
        {
          "internalType": "bool",
          "name": "",
          "type": "bool"
        }
      ],
      "stateMutability": "view",
      "type": "function"
    },
    {
      "inputs": [],
      "name": "symbol",
      "outputs": [
        {
          "internalType": "string",
          "name": "",
          "type": "string"
        }
      ],
      "stateMutability": "view",
      "type": "function"
    },
    {
      "inputs": [
        {
          "internalType": "uint256",
          "name": "tokenId",
          "type": "uint256"
        }
      ],
      "name": "tokenURI",
      "outputs": [
        {
          "internalType": "string",
          "name": "",
          "type": "string"
        }
      ],
      "stateMutability": "view",
      "type": "function"
    },
    {
      "inputs": [
        {
          "internalType": "address",
          "name": "from",
          "type": "address"
        },
        {
          "internalType": "address",
          "name": "to",
          "type": "address"
        },
        {
          "internalType": "uint256",
          "name": "tokenId",
          "type": "uint256"
        }
      ],
      "name": "transferFrom",
      "outputs": [],
      "stateMutability": "nonpayable",
      "type": "function"
    },
    {
      "inputs": [
        {
          "internalType": "address",
          "name": "newOwner",
          "type": "address"
        }
      ],
      "name": "transferOwnership",
      "outputs": [],
      "stateMutability": "nonpayable",
      "type": "function"
    }
  ],
  "bytecode": "0x60a060405260006008553480156200001657600080fd5b50604051620052203803806200522083398181016040528101906200003c919062000263565b806040518060400160405280600a81526020017f436172626f6e4c696e6b000000000000000000000000000000000000000000008152506040518060400160405280600581526020017f434c494e4b0000000000000000000000000000000000000000000000000000008152508160009081620000ba91906200050f565b508060019081620000cc91906200050f565b505050620000ef620000e36200012b60201b60201c565b6200013360201b60201c565b8073ffffffffffffffffffffffffffffffffffffffff1660808173ffffffffffffffffffffffffffffffffffffffff16815250505050620005f6565b600033905090565b6000600660009054906101000a900473ffffffffffffffffffffffffffffffffffffffff16905081600660006101000a81548173ffffffffffffffffffffffffffffffffffffffff021916908373ffffffffffffffffffffffffffffffffffffffff1602179055508173ffffffffffffffffffffffffffffffffffffffff168173ffffffffffffffffffffffffffffffffffffffff167f8be0079c531659141344cd1fd0a4f28419497f9722a3daafe3b4186f6b6457e060405160405180910390a35050565b600080fd5b600073ffffffffffffffffffffffffffffffffffffffff82169050919050565b60006200022b82620001fe565b9050919050565b6200023d816200021e565b81146200024957600080fd5b50565b6000815190506200025d8162000232565b92915050565b6000602082840312156200027c576200027b620001f9565b5b60006200028c848285016200024c565b91505092915050565b600081519050919050565b7f4e487b7100000000000000000000000000000000000000000000000000000000600052604160045260246000fd5b7f4e487b7100000000000000000000000000000000000000000000000000000000600052602260045260246000fd5b600060028204905060018216806200031757607f821691505b6020821081036200032d576200032c620002cf565b5b50919050565b60008190508160005260206000209050919050565b60006020601f8301049050919050565b600082821b905092915050565b600060088302620003977fffffffffffffffffffffffffffffffffffffffffffffffffffffffffffffffff8262000358565b620003a3868362000358565b95508019841693508086168417925050509392505050565b6000819050919050565b6000819050919050565b6000620003f0620003ea620003e484620003bb565b620003c5565b620003bb565b9050919050565b6000819050919050565b6200040c83620003cf565b620004246200041b82620003f7565b84845462000365565b825550505050565b600090565b6200043b6200042c565b6200044881848462000401565b505050565b5b8181101562000470576200046460008262000431565b6001810190506200044e565b5050565b601f821115620004bf57620004898162000333565b620004948462000348565b81016020851015620004a4578190505b620004bc620004b38562000348565b8301826200044d565b50505b505050565b600082821c905092915050565b6000620004e460001984600802620004c4565b1980831691505092915050565b6000620004ff8383620004d1565b9150826002028217905092915050565b6200051a8262000295565b67ffffffffffffffff811115620005365762000535620002a0565b5b620005428254620002fe565b6200054f82828562000474565b600060209050601f83116001811462000587576000841562000572578287015190505b6200057e8582620004f1565b865550620005ee565b601f198416620005978662000333565b60005b82811015620005c1578489015182556001820191506020850194506020810190506200059a565b86831015620005e15784890151620005dd601f891682620004d1565b8355505b6001600288020188555050505b505050505050565b608051614c076200061960003960008181610964015261261f0152614c076000f3fe60806040526004361061019c5760003560e01c806370a08231116100ec578063b88d4fde1161008a578063ea7b4f7711610064578063ea7b4f77146105c5578063f12fc792146105ee578063f2fde38b1461062b578063fd60ec4c146106545761019c565b8063b88d4fde14610522578063c87b56dd1461054b578063e985e9c5146105885761019c565b806395d89b41116100c657806395d89b41146104875780639a5b1339146104b2578063a22cb465146104dd578063abf5f00d146105065761019c565b806370a0823114610408578063715018a6146104455780638da5cb5b1461045c5761019c565b806323b872dd1161015957806342842e0e1161013357806342842e0e14610350578063508954f81461037957806352d84c62146103a25780636352211e146103cb5761019c565b806323b872dd146102d55780633188db38146102fe5780633f9ddf51146103275761019c565b806301ffc9a7146101a157806306fdde03146101de578063081812fc14610209578063095ea7b3146102465780630ca761751461026f57806322881f8814610298575b600080fd5b3480156101ad57600080fd5b506101c860048036038101906101c391906130ed565b610691565b6040516101d59190613135565b60405180910390f35b3480156101ea57600080fd5b506101f3610773565b60405161020091906131e0565b60405180910390f35b34801561021557600080fd5b50610230600480360381019061022b9190613238565b610805565b60405161023d91906132a6565b60405180910390f35b34801561025257600080fd5b5061026d600480360381019061026891906132ed565b61084b565b005b34801561027b57600080fd5b5061029660048036038101906102919190613498565b610962565b005b3480156102a457600080fd5b506102bf60048036038101906102ba9190613523565b6109f7565b6040516102cc919061355f565b60405180910390f35b3480156102e157600080fd5b506102fc60048036038101906102f7919061357a565b610a0f565b005b34801561030a57600080fd5b5061032560048036038101906103209190613659565b610a6f565b005b34801561033357600080fd5b5061034e60048036038101906103499190613238565b610bc0565b005b34801561035c57600080fd5b506103776004803603810190610372919061357a565b610c44565b005b34801561038557600080fd5b506103a0600480360381019061039b9190613523565b610c64565b005b3480156103ae57600080fd5b506103c960048036038101906103c49190613757565b610c76565b005b3480156103d757600080fd5b506103f260048036038101906103ed9190613238565b610ca2565b6040516103ff91906132a6565b60405180910390f35b34801561041457600080fd5b5061042f600480360381019061042a9190613784565b610d28565b60405161043c919061355f565b60405180910390f35b34801561045157600080fd5b5061045a610ddf565b005b34801561046857600080fd5b50610471610df3565b60405161047e91906132a6565b60405180910390f35b34801561049357600080fd5b5061049c610e1d565b6040516104a991906131e0565b60405180910390f35b3480156104be57600080fd5b506104c7610eaf565b6040516104d4919061355f565b60405180910390f35b3480156104e957600080fd5b5061050460048036038101906104ff91906137b1565b610eb5565b005b610520600480360381019061051b9190613238565b610ecb565b005b34801561052e57600080fd5b50610549600480360381019061054491906137f1565b610f7d565b005b34801561055757600080fd5b50610572600480360381019061056d9190613238565b610fdf565b60405161057f91906131e0565b60405180910390f35b34801561059457600080fd5b506105af60048036038101906105aa9190613874565b611047565b6040516105bc9190613135565b60405180910390f35b3480156105d157600080fd5b506105ec60048036038101906105e791906138f4565b6110db565b005b3480156105fa57600080fd5b5061061560048036038101906106109190613977565b61110f565b6040516106229190613a1b565b60405180910390f35b34801561063757600080fd5b50610652600480360381019061064d9190613784565b611241565b005b34801561066057600080fd5b5061067b60048036038101906106769190613238565b6112c4565b6040516106889190613b5d565b60405180910390f35b60007f80ac58cd000000000000000000000000000000000000000000000000000000007bffffffffffffffffffffffffffffffffffffffffffffffffffffffff1916827bffffffffffffffffffffffffffffffffffffffffffffffffffffffff1916148061075c57507f5b5e139f000000000000000000000000000000000000000000000000000000007bffffffffffffffffffffffffffffffffffffffffffffffffffffffff1916827bffffffffffffffffffffffffffffffffffffffffffffffffffffffff1916145b8061076c575061076b82611436565b5b9050919050565b60606000805461078290613bae565b80601f01602080910402602001604051908101604052809291908181526020018280546107ae90613bae565b80156107fb5780601f106107d0576101008083540402835291602001916107fb565b820191906000526020600020905b8154815290600101906020018083116107de57829003601f168201915b5050505050905090565b6000610810826114a0565b6004600083815260200190815260200160002060009054906101000a900473ffffffffffffffffffffffffffffffffffffffff169050919050565b600061085682610ca2565b90508073ffffffffffffffffffffffffffffffffffffffff168373ffffffffffffffffffffffffffffffffffffffff16036108c6576040517f08c379a00000000000000000000000000000000000000000000000000000000081526004016108bd90613c51565b60405180910390fd5b8073ffffffffffffffffffffffffffffffffffffffff166108e56114eb565b73ffffffffffffffffffffffffffffffffffffffff16148061091457506109138161090e6114eb565b611047565b5b610953576040517f08c379a000000000000000000000000000000000000000000000000000000000815260040161094a90613ce3565b60405180910390fd5b61095d83836114f3565b505050565b7f000000000000000000000000000000000000000000000000000000000000000073ffffffffffffffffffffffffffffffffffffffff163373ffffffffffffffffffffffffffffffffffffffff16146109e7576040517fc6829f8300000000000000000000000000000000000000000000000000000000815260040160405180910390fd5b6109f28383836115ac565b505050565b60096020528060005260406000206000915090505481565b610a20610a1a6114eb565b82611653565b610a5f576040517f08c379a0000000000000000000000000000000000000000000000000000000008152600401610a5690613d75565b60405180910390fd5b610a6a8383836116e8565b505050565b610a776119e1565b60006001600854610a889190613dc4565b9050610a943382611a5f565b6040518061010001604052808a8a8080601f016020809104026020016040519081016040528093929190818152602001838380828437600081840152601f19601f820116905080830192505050505050508152602001888152602001878152602001861515815260200160011515815260200185815260200184815260200183815250600a60008381526020019081526020016000206000820151816000019081610b3f9190613fa4565b50602082015181600101556040820151816002015560608201518160030160006101000a81548160ff02191690831515021790555060808201518160030160016101000a81548160ff02191690831515021790555060a0820151816004015560c0820151816005015560e08201518160060155905050505050505050505050565b610bc86119e1565b80610bd281611c7c565b610c11576040517f08c379a0000000000000000000000000000000000000000000000000000000008152600401610c08906140c2565b60405180910390fd5b6001600a600084815260200190815260200160002060030160006101000a81548160ff0219169083151502179055505050565b610c5f83838360405180602001604052806000815250610f7d565b505050565b610c6c6119e1565b8060078190555050565b610c7e6119e1565b806006601c6101000a81548163ffffffff021916908363ffffffff16021790555050565b600080610cae83611cbd565b9050600073ffffffffffffffffffffffffffffffffffffffff168173ffffffffffffffffffffffffffffffffffffffff1603610d1f576040517f08c379a0000000000000000000000000000000000000000000000000000000008152600401610d169061412e565b60405180910390fd5b80915050919050565b60008073ffffffffffffffffffffffffffffffffffffffff168273ffffffffffffffffffffffffffffffffffffffff1603610d98576040517f08c379a0000000000000000000000000000000000000000000000000000000008152600401610d8f906141c0565b60405180910390fd5b600360008373ffffffffffffffffffffffffffffffffffffffff1673ffffffffffffffffffffffffffffffffffffffff168152602001908152602001600020549050919050565b610de76119e1565b610df16000611cfa565b565b6000600660009054906101000a900473ffffffffffffffffffffffffffffffffffffffff16905090565b606060018054610e2c90613bae565b80601f0160208091040260200160405190810160405280929190818152602001828054610e5890613bae565b8015610ea55780601f10610e7a57610100808354040283529160200191610ea5565b820191906000526020600020905b815481529060010190602001808311610e8857829003601f168201915b5050505050905090565b60085481565b610ec7610ec06114eb565b8383611dc0565b5050565b80610ed581611c7c565b610f14576040517f08c379a0000000000000000000000000000000000000000000000000000000008152600401610f0b906140c2565b60405180910390fd5b600a600083815260200190815260200160002060020154341015610f6d576040517f08c379a0000000000000000000000000000000000000000000000000000000008152600401610f649061422c565b60405180910390fd5b610f79303360016116e8565b5050565b610f8e610f886114eb565b83611653565b610fcd576040517f08c379a0000000000000000000000000000000000000000000000000000000008152600401610fc490613d75565b60405180910390fd5b610fd984848484611f2c565b50505050565b6060610fea826114a0565b6000610ff4611f88565b90506000815111611014576040518060200160405280600081525061103f565b8061101e84611f9f565b60405160200161102f929190614288565b6040516020818303038152906040525b915050919050565b6000600560008473ffffffffffffffffffffffffffffffffffffffff1673ffffffffffffffffffffffffffffffffffffffff16815260200190815260200160002060008373ffffffffffffffffffffffffffffffffffffffff1673ffffffffffffffffffffffffffffffffffffffff16815260200190815260200160002060009054906101000a900460ff16905092915050565b6110e36119e1565b80600660146101000a81548167ffffffffffffffff021916908367ffffffffffffffff16021790555050565b6000611119612f81565b61117560008089898080601f016020809104026020016040519081016040528093929190818152602001838380828437600081840152601f19601f820116905080830192505050505050508461206d909392919063ffffffff16565b60008585905011156111d9576111d885858080601f016020809104026020016040519081016040528093929190818152602001838380828437600081840152601f19601f820116905080830192505050505050508261211790919063ffffffff16565b5b60006112196111e783612190565b600660149054906101000a900467ffffffffffffffff166006601c9054906101000a900463ffffffff1660075461261a565b9050836009600083815260200190815260200160002081905550809250505095945050505050565b6112496119e1565b600073ffffffffffffffffffffffffffffffffffffffff168173ffffffffffffffffffffffffffffffffffffffff16036112b8576040517f08c379a00000000000000000000000000000000000000000000000000000000081526004016112af9061431e565b60405180910390fd5b6112c181611cfa565b50565b6112cc612ffb565b816112d681611c7c565b611315576040517f08c379a000000000000000000000000000000000000000000000000000000000815260040161130c906140c2565b60405180910390fd5b600a60008481526020019081526020016000206040518061010001604052908160008201805461134490613bae565b80601f016020809104026020016040519081016040528092919081815260200182805461137090613bae565b80156113bd5780601f10611392576101008083540402835291602001916113bd565b820191906000526020600020905b8154815290600101906020018083116113a057829003601f168201915b5050505050815260200160018201548152602001600282015481526020016003820160009054906101000a900460ff161515151581526020016003820160019054906101000a900460ff161515151581526020016004820154815260200160058201548152602001600682015481525050915050919050565b60007f01ffc9a7000000000000000000000000000000000000000000000000000000007bffffffffffffffffffffffffffffffffffffffffffffffffffffffff1916827bffffffffffffffffffffffffffffffffffffffffffffffffffffffff1916149050919050565b6114a981611c7c565b6114e8576040517f08c379a00000000000000000000000000000000000000000000000000000000081526004016114df9061412e565b60405180910390fd5b50565b600033905090565b816004600083815260200190815260200160002060006101000a81548173ffffffffffffffffffffffffffffffffffffffff021916908373ffffffffffffffffffffffffffffffffffffffff160217905550808273ffffffffffffffffffffffffffffffffffffffff1661156683610ca2565b73ffffffffffffffffffffffffffffffffffffffff167f8c5be1e5ebec7d5bd14f71427d1e84f3dd0314c0f7b2291e5b200ac8c7c3b92560405160405180910390a45050565b6000828060200190518101906115c29190614353565b905060006009600086815260200190815260200160002054905081600a60008381526020019081526020016000206004018190555042600a600083815260200190815260200160002060050181905550847f7bab0ec163b5c132c72b8146ac4d6e067e82ed58f8b131150aa71c925891156285856040516116449291906143d5565b60405180910390a25050505050565b60008061165f83610ca2565b90508073ffffffffffffffffffffffffffffffffffffffff168473ffffffffffffffffffffffffffffffffffffffff1614806116a157506116a08185611047565b5b806116df57508373ffffffffffffffffffffffffffffffffffffffff166116c784610805565b73ffffffffffffffffffffffffffffffffffffffff16145b91505092915050565b8273ffffffffffffffffffffffffffffffffffffffff1661170882610ca2565b73ffffffffffffffffffffffffffffffffffffffff161461175e576040517f08c379a00000000000000000000000000000000000000000000000000000000081526004016117559061447e565b60405180910390fd5b600073ffffffffffffffffffffffffffffffffffffffff168273ffffffffffffffffffffffffffffffffffffffff16036117cd576040517f08c379a00000000000000000000000000000000000000000000000000000000081526004016117c490614510565b60405180910390fd5b6117da83838360016126fd565b8273ffffffffffffffffffffffffffffffffffffffff166117fa82610ca2565b73ffffffffffffffffffffffffffffffffffffffff1614611850576040517f08c379a00000000000000000000000000000000000000000000000000000000081526004016118479061447e565b60405180910390fd5b6004600082815260200190815260200160002060006101000a81549073ffffffffffffffffffffffffffffffffffffffff02191690556001600360008573ffffffffffffffffffffffffffffffffffffffff1673ffffffffffffffffffffffffffffffffffffffff168152602001908152602001600020600082825403925050819055506001600360008473ffffffffffffffffffffffffffffffffffffffff1673ffffffffffffffffffffffffffffffffffffffff16815260200190815260200160002060008282540192505081905550816002600083815260200190815260200160002060006101000a81548173ffffffffffffffffffffffffffffffffffffffff021916908373ffffffffffffffffffffffffffffffffffffffff160217905550808273ffffffffffffffffffffffffffffffffffffffff168473ffffffffffffffffffffffffffffffffffffffff167fddf252ad1be2c89b69c2b068fc378daa952ba7f163c4a11628f55a4df523b3ef60405160405180910390a46119dc8383836001612703565b505050565b6119e96114eb565b73ffffffffffffffffffffffffffffffffffffffff16611a07610df3565b73ffffffffffffffffffffffffffffffffffffffff1614611a5d576040517f08c379a0000000000000000000000000000000000000000000000000000000008152600401611a549061457c565b60405180910390fd5b565b600073ffffffffffffffffffffffffffffffffffffffff168273ffffffffffffffffffffffffffffffffffffffff1603611ace576040517f08c379a0000000000000000000000000000000000000000000000000000000008152600401611ac5906145e8565b60405180910390fd5b611ad781611c7c565b15611b17576040517f08c379a0000000000000000000000000000000000000000000000000000000008152600401611b0e90614654565b60405180910390fd5b611b256000838360016126fd565b611b2e81611c7c565b15611b6e576040517f08c379a0000000000000000000000000000000000000000000000000000000008152600401611b6590614654565b60405180910390fd5b6001600360008473ffffffffffffffffffffffffffffffffffffffff1673ffffffffffffffffffffffffffffffffffffffff16815260200190815260200160002060008282540192505081905550816002600083815260200190815260200160002060006101000a81548173ffffffffffffffffffffffffffffffffffffffff021916908373ffffffffffffffffffffffffffffffffffffffff160217905550808273ffffffffffffffffffffffffffffffffffffffff16600073ffffffffffffffffffffffffffffffffffffffff167fddf252ad1be2c89b69c2b068fc378daa952ba7f163c4a11628f55a4df523b3ef60405160405180910390a4611c78600083836001612703565b5050565b60008073ffffffffffffffffffffffffffffffffffffffff16611c9e83611cbd565b73ffffffffffffffffffffffffffffffffffffffff1614159050919050565b60006002600083815260200190815260200160002060009054906101000a900473ffffffffffffffffffffffffffffffffffffffff169050919050565b6000600660009054906101000a900473ffffffffffffffffffffffffffffffffffffffff16905081600660006101000a81548173ffffffffffffffffffffffffffffffffffffffff021916908373ffffffffffffffffffffffffffffffffffffffff1602179055508173ffffffffffffffffffffffffffffffffffffffff168173ffffffffffffffffffffffffffffffffffffffff167f8be0079c531659141344cd1fd0a4f28419497f9722a3daafe3b4186f6b6457e060405160405180910390a35050565b8173ffffffffffffffffffffffffffffffffffffffff168373ffffffffffffffffffffffffffffffffffffffff1603611e2e576040517f08c379a0000000000000000000000000000000000000000000000000000000008152600401611e25906146c0565b60405180910390fd5b80600560008573ffffffffffffffffffffffffffffffffffffffff1673ffffffffffffffffffffffffffffffffffffffff16815260200190815260200160002060008473ffffffffffffffffffffffffffffffffffffffff1673ffffffffffffffffffffffffffffffffffffffff16815260200190815260200160002060006101000a81548160ff0219169083151502179055508173ffffffffffffffffffffffffffffffffffffffff168373ffffffffffffffffffffffffffffffffffffffff167f17307eab39ab6107e8899845ad3d59bd9653f200f220920489ca2b5937696c3183604051611f1f9190613135565b60405180910390a3505050565b611f378484846116e8565b611f4384848484612709565b611f82576040517f08c379a0000000000000000000000000000000000000000000000000000000008152600401611f7990614752565b60405180910390fd5b50505050565b606060405180602001604052806000815250905090565b606060006001611fae84612890565b01905060008167ffffffffffffffff811115611fcd57611fcc61336d565b5b6040519080825280601f01601f191660200182016040528015611fff5781602001600182028036833780820191505090505b509050600082602001820190505b600115612062578080600190039150507f3031323334353637383961626364656600000000000000000000000000000000600a86061a8153600a858161205657612055614772565b5b0494506000850361200d575b819350505050919050565b60008151036120a8576040517f22ce3edd00000000000000000000000000000000000000000000000000000000815260040160405180910390fd5b82846000019060028111156120c0576120bf6147a1565b5b908160028111156120d4576120d36147a1565b5b8152505081846040019060008111156120f0576120ef6147a1565b5b90816000811115612104576121036147a1565b5b8152505080846060018190525050505050565b6000815103612152576040517fe889636f00000000000000000000000000000000000000000000000000000000815260040160405180910390fd5b60018260200190600281111561216b5761216a6147a1565b5b9081600281111561217f5761217e6147a1565b5b815250508082608001819052505050565b6060600061219f6101006129e3565b90506121e96040518060400160405280600c81526020017f636f64654c6f636174696f6e000000000000000000000000000000000000000081525082612a0a90919063ffffffff16565b61221283600001516002811115612203576122026147a1565b5b82612a3390919063ffffffff16565b61225a6040518060400160405280600881526020017f6c616e677561676500000000000000000000000000000000000000000000000081525082612a0a90919063ffffffff16565b61228383604001516000811115612274576122736147a1565b5b82612a3390919063ffffffff16565b6122cb6040518060400160405280600681526020017f736f75726365000000000000000000000000000000000000000000000000000081525082612a0a90919063ffffffff16565b6122e2836060015182612a0a90919063ffffffff16565b60008360a00151511115612350576123386040518060400160405280601081526020017f726571756573745369676e61747572650000000000000000000000000000000081525082612a0a90919063ffffffff16565b61234f8360a0015182612a8390919063ffffffff16565b5b60008360c0015151111561240c576123a66040518060400160405280600481526020017f617267730000000000000000000000000000000000000000000000000000000081525082612a0a90919063ffffffff16565b6123af81612aac565b60005b8360c0015151811015612401576123f08460c0015182815181106123d9576123d86147d0565b5b602002602001015183612a0a90919063ffffffff16565b806123fa906147ff565b90506123b2565b5061240b81612ad4565b5b6000836080015151111561254d576000600281111561242e5761242d6147a1565b5b83602001516002811115612445576124446147a1565b5b0361247c576040517fa80d31f700000000000000000000000000000000000000000000000000000000815260040160405180910390fd5b6124c46040518060400160405280600f81526020017f736563726574734c6f636174696f6e000000000000000000000000000000000081525082612a0a90919063ffffffff16565b6124ed836020015160028111156124de576124dd6147a1565b5b82612a3390919063ffffffff16565b6125356040518060400160405280600781526020017f736563726574730000000000000000000000000000000000000000000000000081525082612a0a90919063ffffffff16565b61254c836080015182612a8390919063ffffffff16565b5b60008360e00151511115612609576125a36040518060400160405280600981526020017f627974657341726773000000000000000000000000000000000000000000000081525082612a0a90919063ffffffff16565b6125ac81612aac565b60005b8360e00151518110156125fe576125ed8460e0015182815181106125d6576125d56147d0565b5b602002602001015183612a8390919063ffffffff16565b806125f7906147ff565b90506125af565b5061260881612ad4565b5b806000015160000151915050919050565b6000807f000000000000000000000000000000000000000000000000000000000000000073ffffffffffffffffffffffffffffffffffffffff1663461d27628688600188886040518663ffffffff1660e01b815260040161267f959493929190614882565b6020604051808303816000875af115801561269e573d6000803e3d6000fd5b505050506040513d601f19601f820116820180604052508101906126c291906148f1565b9050807f1131472297a800fee664d1d89cfa8f7676ff07189ecc53f80bbb5f4969099db860405160405180910390a280915050949350505050565b50505050565b50505050565b600061272a8473ffffffffffffffffffffffffffffffffffffffff16612afc565b15612883578373ffffffffffffffffffffffffffffffffffffffff1663150b7a026127536114eb565b8786866040518563ffffffff1660e01b8152600401612775949392919061491e565b6020604051808303816000875af19250505080156127b157506040513d601f19601f820116820180604052508101906127ae919061497f565b60015b612833573d80600081146127e1576040519150601f19603f3d011682016040523d82523d6000602084013e6127e6565b606091505b50600081510361282b576040517f08c379a000000000000000000000000000000000000000000000000000000000815260040161282290614752565b60405180910390fd5b805181602001fd5b63150b7a0260e01b7bffffffffffffffffffffffffffffffffffffffffffffffffffffffff1916817bffffffffffffffffffffffffffffffffffffffffffffffffffffffff191614915050612888565b600190505b949350505050565b600080600090507a184f03e93ff9f4daa797ed6e38ed64bf6a1f01000000000000000083106128ee577a184f03e93ff9f4daa797ed6e38ed64bf6a1f01000000000000000083816128e4576128e3614772565b5b0492506040810190505b6d04ee2d6d415b85acef8100000000831061292b576d04ee2d6d415b85acef8100000000838161292157612920614772565b5b0492506020810190505b662386f26fc10000831061295a57662386f26fc1000083816129505761294f614772565b5b0492506010810190505b6305f5e1008310612983576305f5e100838161297957612978614772565b5b0492506008810190505b61271083106129a857612710838161299e5761299d614772565b5b0492506004810190505b606483106129cb57606483816129c1576129c0614772565b5b0492506002810190505b600a83106129da576001810190505b80915050919050565b6129eb613047565b6129f9816000015183612b1f565b506000816020018181525050919050565b612a178260038351612b98565b612a2e818360000151612d4190919063ffffffff16565b505050565b612a5560026005600660ff16901b178360000151612d5d90919063ffffffff16565b50612a7f8282604051602001612a6b919061355f565b604051602081830303815290604052612a83565b5050565b612a908260028351612b98565b612aa7818360000151612d4190919063ffffffff16565b505050565b612ab7816004612dc7565b600181602001818151612aca9190613dc4565b9150818152505050565b612adf816007612dc7565b600181602001818151612af291906149ac565b9150818152505050565b6000808273ffffffffffffffffffffffffffffffffffffffff163b119050919050565b612b27613067565b6000602083612b3691906149e0565b14612b6257602082612b4891906149e0565b6020612b5491906149ac565b82612b5f9190613dc4565b91505b818360200181815250506040518084526000815282810160200181811015612b8957600080fd5b80604052505082905092915050565b60178167ffffffffffffffff1611612bd357612bcd8160058460ff16901b60ff16178460000151612d5d90919063ffffffff16565b50612d3c565b60ff8167ffffffffffffffff1611612c3157612c06601860058460ff16901b178460000151612d5d90919063ffffffff16565b50612c2b8167ffffffffffffffff1660018560000151612ded9092919063ffffffff16565b50612d3b565b61ffff8167ffffffffffffffff1611612c9057612c65601960058460ff16901b178460000151612d5d90919063ffffffff16565b50612c8a8167ffffffffffffffff1660028560000151612ded9092919063ffffffff16565b50612d3a565b63ffffffff8167ffffffffffffffff1611612cf157612cc6601a60058460ff16901b178460000151612d5d90919063ffffffff16565b50612ceb8167ffffffffffffffff1660048560000151612ded9092919063ffffffff16565b50612d39565b612d12601b60058460ff16901b178460000151612d5d90919063ffffffff16565b50612d378167ffffffffffffffff1660088560000151612ded9092919063ffffffff16565b505b5b5b5b505050565b612d49613067565b612d5583838451612e7a565b905092915050565b612d65613067565b600083600001515190506000600182612d7e9190613dc4565b905084602001518210612da257612da185600283612d9c9190614a11565b612f5d565b5b84516020838201018581538151831115612dba578282525b5050849250505092915050565b612de8601f60058360ff16901b178360000151612d5d90919063ffffffff16565b505050565b612df5613067565b6000846000015151905060008184612e0d9190613dc4565b90508560200151811115612e3257612e3186600283612e2c9190614a11565b612f5d565b5b6000600185610100612e449190614b86565b612e4e91906149ac565b905086518281018783198251161781528151841115612e6b578382525b50508693505050509392505050565b612e82613067565b8251821115612e9057600080fd5b6000846000015151905060008382612ea89190613dc4565b90508560200151811115612ecd57612ecc86600283612ec79190614a11565b612f5d565b5b60008087518051856020830101935080851115612ee8578482525b60208901925050505b60208610612f2f5780518252602082612f0a9190613dc4565b9150602081612f199190613dc4565b9050602086612f2891906149ac565b9550612ef1565b60006001876020036101000a0390508019825116818451168181178552505050879450505050509392505050565b600082600001519050612f708383612b1f565b50612f7b8382612d41565b50505050565b60405180610100016040528060006002811115612fa157612fa06147a1565b5b815260200160006002811115612fba57612fb96147a1565b5b8152602001600080811115612fd257612fd16147a1565b5b815260200160608152602001606081526020016060815260200160608152602001606081525090565b6040518061010001604052806060815260200160008152602001600081526020016000151581526020016000151581526020016000815260200160008152602001600080191681525090565b604051806040016040528061305a613067565b8152602001600081525090565b604051806040016040528060608152602001600081525090565b6000604051905090565b600080fd5b600080fd5b60007fffffffff0000000000000000000000000000000000000000000000000000000082169050919050565b6130ca81613095565b81146130d557600080fd5b50565b6000813590506130e7816130c1565b92915050565b6000602082840312156131035761310261308b565b5b6000613111848285016130d8565b91505092915050565b60008115159050919050565b61312f8161311a565b82525050565b600060208201905061314a6000830184613126565b92915050565b600081519050919050565b600082825260208201905092915050565b60005b8381101561318a57808201518184015260208101905061316f565b60008484015250505050565b6000601f19601f8301169050919050565b60006131b282613150565b6131bc818561315b565b93506131cc81856020860161316c565b6131d581613196565b840191505092915050565b600060208201905081810360008301526131fa81846131a7565b905092915050565b6000819050919050565b61321581613202565b811461322057600080fd5b50565b6000813590506132328161320c565b92915050565b60006020828403121561324e5761324d61308b565b5b600061325c84828501613223565b91505092915050565b600073ffffffffffffffffffffffffffffffffffffffff82169050919050565b600061329082613265565b9050919050565b6132a081613285565b82525050565b60006020820190506132bb6000830184613297565b92915050565b6132ca81613285565b81146132d557600080fd5b50565b6000813590506132e7816132c1565b92915050565b600080604083850312156133045761330361308b565b5b6000613312858286016132d8565b925050602061332385828601613223565b9150509250929050565b6000819050919050565b6133408161332d565b811461334b57600080fd5b50565b60008135905061335d81613337565b92915050565b600080fd5b600080fd5b7f4e487b7100000000000000000000000000000000000000000000000000000000600052604160045260246000fd5b6133a582613196565b810181811067ffffffffffffffff821117156133c4576133c361336d565b5b80604052505050565b60006133d7613081565b90506133e3828261339c565b919050565b600067ffffffffffffffff8211156134035761340261336d565b5b61340c82613196565b9050602081019050919050565b82818337600083830152505050565b600061343b613436846133e8565b6133cd565b90508281526020810184848401111561345757613456613368565b5b613462848285613419565b509392505050565b600082601f83011261347f5761347e613363565b5b813561348f848260208601613428565b91505092915050565b6000806000606084860312156134b1576134b061308b565b5b60006134bf8682870161334e565b935050602084013567ffffffffffffffff8111156134e0576134df613090565b5b6134ec8682870161346a565b925050604084013567ffffffffffffffff81111561350d5761350c613090565b5b6135198682870161346a565b9150509250925092565b6000602082840312156135395761353861308b565b5b60006135478482850161334e565b91505092915050565b61355981613202565b82525050565b60006020820190506135746000830184613550565b92915050565b6000806000606084860312156135935761359261308b565b5b60006135a1868287016132d8565b93505060206135b2868287016132d8565b92505060406135c386828701613223565b9150509250925092565b600080fd5b600080fd5b60008083601f8401126135ed576135ec613363565b5b8235905067ffffffffffffffff81111561360a576136096135cd565b5b602083019150836001820283011115613626576136256135d2565b5b9250929050565b6136368161311a565b811461364157600080fd5b50565b6000813590506136538161362d565b92915050565b60008060008060008060008060e0898b0312156136795761367861308b565b5b600089013567ffffffffffffffff81111561369757613696613090565b5b6136a38b828c016135d7565b985098505060206136b68b828c01613223565b96505060406136c78b828c01613223565b95505060606136d88b828c01613644565b94505060806136e98b828c01613223565b93505060a06136fa8b828c01613223565b92505060c061370b8b828c0161334e565b9150509295985092959890939650565b600063ffffffff82169050919050565b6137348161371b565b811461373f57600080fd5b50565b6000813590506137518161372b565b92915050565b60006020828403121561376d5761376c61308b565b5b600061377b84828501613742565b91505092915050565b60006020828403121561379a5761379961308b565b5b60006137a8848285016132d8565b91505092915050565b600080604083850312156137c8576137c761308b565b5b60006137d6858286016132d8565b92505060206137e785828601613644565b9150509250929050565b6000806000806080858703121561380b5761380a61308b565b5b6000613819878288016132d8565b945050602061382a878288016132d8565b935050604061383b87828801613223565b925050606085013567ffffffffffffffff81111561385c5761385b613090565b5b6138688782880161346a565b91505092959194509250565b6000806040838503121561388b5761388a61308b565b5b6000613899858286016132d8565b92505060206138aa858286016132d8565b9150509250929050565b600067ffffffffffffffff82169050919050565b6138d1816138b4565b81146138dc57600080fd5b50565b6000813590506138ee816138c8565b92915050565b60006020828403121561390a5761390961308b565b5b6000613918848285016138df565b91505092915050565b60008083601f84011261393757613936613363565b5b8235905067ffffffffffffffff811115613954576139536135cd565b5b6020830191508360018202830111156139705761396f6135d2565b5b9250929050565b6000806000806000606086880312156139935761399261308b565b5b600086013567ffffffffffffffff8111156139b1576139b0613090565b5b6139bd888289016135d7565b9550955050602086013567ffffffffffffffff8111156139e0576139df613090565b5b6139ec88828901613921565b935093505060406139ff88828901613223565b9150509295509295909350565b613a158161332d565b82525050565b6000602082019050613a306000830184613a0c565b92915050565b600082825260208201905092915050565b6000613a5282613150565b613a5c8185613a36565b9350613a6c81856020860161316c565b613a7581613196565b840191505092915050565b613a8981613202565b82525050565b613a988161311a565b82525050565b613aa78161332d565b82525050565b6000610100830160008301518482036000860152613acb8282613a47565b9150506020830151613ae06020860182613a80565b506040830151613af36040860182613a80565b506060830151613b066060860182613a8f565b506080830151613b196080860182613a8f565b5060a0830151613b2c60a0860182613a80565b5060c0830151613b3f60c0860182613a80565b5060e0830151613b5260e0860182613a9e565b508091505092915050565b60006020820190508181036000830152613b778184613aad565b905092915050565b7f4e487b7100000000000000000000000000000000000000000000000000000000600052602260045260246000fd5b60006002820490506001821680613bc657607f821691505b602082108103613bd957613bd8613b7f565b5b50919050565b7f4552433732313a20617070726f76616c20746f2063757272656e74206f776e6560008201527f7200000000000000000000000000000000000000000000000000000000000000602082015250565b6000613c3b60218361315b565b9150613c4682613bdf565b604082019050919050565b60006020820190508181036000830152613c6a81613c2e565b9050919050565b7f4552433732313a20617070726f76652063616c6c6572206973206e6f7420746f60008201527f6b656e206f776e6572206f7220617070726f76656420666f7220616c6c000000602082015250565b6000613ccd603d8361315b565b9150613cd882613c71565b604082019050919050565b60006020820190508181036000830152613cfc81613cc0565b9050919050565b7f4552433732313a2063616c6c6572206973206e6f7420746f6b656e206f776e6560008201527f72206f7220617070726f76656400000000000000000000000000000000000000602082015250565b6000613d5f602d8361315b565b9150613d6a82613d03565b604082019050919050565b60006020820190508181036000830152613d8e81613d52565b9050919050565b7f4e487b7100000000000000000000000000000000000000000000000000000000600052601160045260246000fd5b6000613dcf82613202565b9150613dda83613202565b9250828201905080821115613df257613df1613d95565b5b92915050565b60008190508160005260206000209050919050565b60006020601f8301049050919050565b600082821b905092915050565b600060088302613e5a7fffffffffffffffffffffffffffffffffffffffffffffffffffffffffffffffff82613e1d565b613e648683613e1d565b95508019841693508086168417925050509392505050565b6000819050919050565b6000613ea1613e9c613e9784613202565b613e7c565b613202565b9050919050565b6000819050919050565b613ebb83613e86565b613ecf613ec782613ea8565b848454613e2a565b825550505050565b600090565b613ee4613ed7565b613eef818484613eb2565b505050565b5b81811015613f1357613f08600082613edc565b600181019050613ef5565b5050565b601f821115613f5857613f2981613df8565b613f3284613e0d565b81016020851015613f41578190505b613f55613f4d85613e0d565b830182613ef4565b50505b505050565b600082821c905092915050565b6000613f7b60001984600802613f5d565b1980831691505092915050565b6000613f948383613f6a565b9150826002028217905092915050565b613fad82613150565b67ffffffffffffffff811115613fc657613fc561336d565b5b613fd08254613bae565b613fdb828285613f17565b600060209050601f83116001811461400e5760008415613ffc578287015190505b6140068582613f88565b86555061406e565b601f19841661401c86613df8565b60005b828110156140445784890151825560018201915060208501945060208101905061401f565b86831015614061578489015161405d601f891682613f6a565b8355505b6001600288020188555050505b505050505050565b7f546f6b656e20646f6573206e6f74206578697374000000000000000000000000600082015250565b60006140ac60148361315b565b91506140b782614076565b602082019050919050565b600060208201905081810360008301526140db8161409f565b9050919050565b7f4552433732313a20696e76616c696420746f6b656e2049440000000000000000600082015250565b600061411860188361315b565b9150614123826140e2565b602082019050919050565b600060208201905081810360008301526141478161410b565b9050919050565b7f4552433732313a2061646472657373207a65726f206973206e6f74206120766160008201527f6c6964206f776e65720000000000000000000000000000000000000000000000602082015250565b60006141aa60298361315b565b91506141b58261414e565b604082019050919050565b600060208201905081810360008301526141d98161419d565b9050919050565b7f496e73756666696369656e742066756e64730000000000000000000000000000600082015250565b600061421660128361315b565b9150614221826141e0565b602082019050919050565b6000602082019050818103600083015261424581614209565b9050919050565b600081905092915050565b600061426282613150565b61426c818561424c565b935061427c81856020860161316c565b80840191505092915050565b60006142948285614257565b91506142a08284614257565b91508190509392505050565b7f4f776e61626c653a206e6577206f776e657220697320746865207a65726f206160008201527f6464726573730000000000000000000000000000000000000000000000000000602082015250565b600061430860268361315b565b9150614313826142ac565b604082019050919050565b60006020820190508181036000830152614337816142fb565b9050919050565b60008151905061434d8161320c565b92915050565b6000602082840312156143695761436861308b565b5b60006143778482850161433e565b91505092915050565b600081519050919050565b600082825260208201905092915050565b60006143a782614380565b6143b1818561438b565b93506143c181856020860161316c565b6143ca81613196565b840191505092915050565b600060408201905081810360008301526143ef818561439c565b90508181036020830152614403818461439c565b90509392505050565b7f4552433732313a207472616e736665722066726f6d20696e636f72726563742060008201527f6f776e6572000000000000000000000000000000000000000000000000000000602082015250565b600061446860258361315b565b91506144738261440c565b604082019050919050565b600060208201905081810360008301526144978161445b565b9050919050565b7f4552433732313a207472616e7366657220746f20746865207a65726f2061646460008201527f7265737300000000000000000000000000000000000000000000000000000000602082015250565b60006144fa60248361315b565b91506145058261449e565b604082019050919050565b60006020820190508181036000830152614529816144ed565b9050919050565b7f4f776e61626c653a2063616c6c6572206973206e6f7420746865206f776e6572600082015250565b600061456660208361315b565b915061457182614530565b602082019050919050565b6000602082019050818103600083015261459581614559565b9050919050565b7f4552433732313a206d696e7420746f20746865207a65726f2061646472657373600082015250565b60006145d260208361315b565b91506145dd8261459c565b602082019050919050565b60006020820190508181036000830152614601816145c5565b9050919050565b7f4552433732313a20746f6b656e20616c7265616479206d696e74656400000000600082015250565b600061463e601c8361315b565b915061464982614608565b602082019050919050565b6000602082019050818103600083015261466d81614631565b9050919050565b7f4552433732313a20617070726f766520746f2063616c6c657200000000000000600082015250565b60006146aa60198361315b565b91506146b582614674565b602082019050919050565b600060208201905081810360008301526146d98161469d565b9050919050565b7f4552433732313a207472616e7366657220746f206e6f6e20455243373231526560008201527f63656976657220696d706c656d656e7465720000000000000000000000000000602082015250565b600061473c60328361315b565b9150614747826146e0565b604082019050919050565b6000602082019050818103600083015261476b8161472f565b9050919050565b7f4e487b7100000000000000000000000000000000000000000000000000000000600052601260045260246000fd5b7f4e487b7100000000000000000000000000000000000000000000000000000000600052602160045260246000fd5b7f4e487b7100000000000000000000000000000000000000000000000000000000600052603260045260246000fd5b600061480a82613202565b91507fffffffffffffffffffffffffffffffffffffffffffffffffffffffffffffffff820361483c5761483b613d95565b5b600182019050919050565b614850816138b4565b82525050565b600061ffff82169050919050565b61486d81614856565b82525050565b61487c8161371b565b82525050565b600060a0820190506148976000830188614847565b81810360208301526148a9818761439c565b90506148b86040830186614864565b6148c56060830185614873565b6148d26080830184613a0c565b9695505050505050565b6000815190506148eb81613337565b92915050565b6000602082840312156149075761490661308b565b5b6000614915848285016148dc565b91505092915050565b60006080820190506149336000830187613297565b6149406020830186613297565b61494d6040830185613550565b818103606083015261495f818461439c565b905095945050505050565b600081519050614979816130c1565b92915050565b6000602082840312156149955761499461308b565b5b60006149a38482850161496a565b91505092915050565b60006149b782613202565b91506149c283613202565b92508282039050818111156149da576149d9613d95565b5b92915050565b60006149eb82613202565b91506149f683613202565b925082614a0657614a05614772565b5b828206905092915050565b6000614a1c82613202565b9150614a2783613202565b9250828202614a3581613202565b91508282048414831517614a4c57614a4b613d95565b5b5092915050565b60008160011c9050919050565b6000808291508390505b6001851115614aaa57808604811115614a8657614a85613d95565b5b6001851615614a955780820291505b8081029050614aa385614a53565b9450614a6a565b94509492505050565b600082614ac35760019050614b7f565b81614ad15760009050614b7f565b8160018114614ae75760028114614af157614b20565b6001915050614b7f565b60ff841115614b0357614b02613d95565b5b8360020a915084821115614b1a57614b19613d95565b5b50614b7f565b5060208310610133831016604e8410600b8410161715614b555782820a905083811115614b5057614b4f613d95565b5b614b7f565b614b628484846001614a60565b92509050818404811115614b7957614b78613d95565b5b81810290505b9392505050565b6000614b9182613202565b9150614b9c83613202565b9250614bc97fffffffffffffffffffffffffffffffffffffffffffffffffffffffffffffffff8484614ab3565b90509291505056fea26469706673582212207338a0fc45a938607b7172276538dd7688d43be9f45c70e02bd223d599e5254364736f6c63430008130033",
  "linkReferences": {},
  "deployedLinkReferences": {}
}